:10000000F8FF002011040000FB4B0000FB4B000038
:10001000FB4B0000FB4B0000FB4B0000FB4B0000C8
:10002000FB4B0000FB4B0000FB4B0000FB4B0000B8
:10003000FB4B0000FB4B0000FB4B0000FB4B0000A8
:10004000FB4B0000FB4B0000FB4B0000FB4B000098
:10040000FFFFFFFFFFFFFFFFFFFFFFFFFEFFFFFFFD
:1004100062B607F05DFBFEE710B5DFF8E40900689F
:10042000002101F0B7FA08D2DFF8D409006890F093
:100430000040DFF8D019086005E0DFF8C409006863
:10044000DFF8C0190860DFF8C0090068002101F07A
:10045000A1FA08D2DFF8B009006890F00040DFF898
:10046000AC19086005E0DFF8A0090068DFF89C1906
:100470000860DFF890090068DFF8A01C096801F047
:1004800089FA09D25FF07E50DFF8941C08600020E2
:10049000DFF8901C0870A0E0DFF868090068DFF85A
:1004A0007C1C496801F076FA1CD2DFF8700C4068B9
:1004B000DFF85019096801F07FFA0400DFF85C0CDE
:1004C0004068DFF8581C096801F076FA0100200046
:1004D00001F0B2FADFF8481C08600020DFF8441C85
:1004E00008707AE0DFF81C090068DFF8301C8968C2
:1004F00001F050FA1CD2DFF8240C8068DFF80419F0
:10050000096801F059FA0400DFF8100C8068DFF880
:100510000C1C496801F050FA0100200001F08CFA2F
:10052000DFF8FC1B08600120DFF8F81B087054E0BE
:10053000DFF8D0080068DFF8E41BC96801F02AFA88
:100540001CD2DFF8D80BC068DFF8B818096801F0D2
:1005500033FA0400DFF8C40BC068DFF8C01B8968F9
:1005600001F02AFA0100200001F066FADFF8B01B62
:1005700008600220DFF8AC1B08702EE0DFF884086A
:100580000068DFF8981B096901F004FA1CD2DFF853
:100590008C0B0069DFF86C18096801F00DFA040093
:1005A000DFF8780B0069DFF8741BC96801F004FA02
:1005B0000100200001F040FADFF8641B086003200E
:1005C000DFF8601B087008E05FF07E50DFF8501B1A
:1005D00008600420DFF84C1B0870DFF8440B00684B
:1005E00001F0A8FA02000B000020DFF8DC1B01F08C
:1005F000C5FA01F035FBDFF8281B4860DFF8640C12
:100600000068DFF80818096801F05EFB09D85FF0A0
:100610007E50DFF8541C08600020DFF8501C087082
:10062000A0E0DFF8E8070068DFF8381C496801F04F
:10063000B1F91CD2DFF82C0C4068DFF8D01709683C
:1006400001F0BAF90400DFF81C0C4068DFF8141C54
:10065000096801F0B1F90100200001F0EDF9DFF8BF
:10066000081C08600020DFF8041C08707AE0DFF83E
:100670009C070068DFF8EC1B896801F08BF91CD23D
:10068000DFF8E00B8068DFF88417096801F094F95F
:100690000400DFF8D00B8068DFF8C81B496801F060
:1006A0008BF90100200001F0C7F9DFF8BC1B0860DE
:1006B0000120DFF8B81B087054E0DFF8500700682D
:1006C000DFF8A01BC96801F065F91CD2DFF8940BB4
:1006D000C068DFF83817096801F06EF90400DFF828
:1006E000840BC068DFF87C1B896801F065F90100A4
:1006F000200001F0A1F9DFF8701B08600220DFF88C
:100700006C1B08702EE0DFF804070068DFF8541B4C
:10071000096901F03FF91CD2DFF8480B0069DFF8E6
:10072000EC16096801F048F90400DFF8380B00699D
:10073000DFF8301BC96801F03FF90100200001F02B
:100740007BF9DFF8241B08600320DFF8201B08700A
:1007500008E05FF07E50DFF8101B08600420DFF82F
:100760000C1B0870DFF8000B006801F0E3F90200D1
:100770000B000020DFF8501A01F000FA01F070FAC7
:10078000DFF8E41A486010BD80B50020DFF8E01AF9
:100790000870DFF8DC0A90F90000062810DA002063
:1007A000DFF8D01ADFF8C82A92F9002041F82200B9
:1007B000DFF8BC0A0078401CDFF8B41A0870E8E7DC
:1007C000DFF8B40ADFF85C1991F90010182211FB68
:1007D00002F10844DFF8941A91F9001050F8210052
:1007E000DFF8681D0870DFF838090168DFF8780A5B
:1007F000006801F07BFADFF87C1ADFF8502D92F9DF
:10080000002051F8221001F0DDFADFF8681ADFF855
:100810003C2D92F9002041F82200DFF85C0ADFF855
:10082000041991F90010182211FB02F10844DFF8B5
:100830003C1A91F9001000EB81004068DFF80C1DB4
:100840000870DFF8DC080168DFF81C0A406801F076
:100850004DFADFF8201ADFF8F42C92F9002051F855
:10086000221001F0AFFADFF80C1ADFF8E02C92F951
:10087000002041F82200DFF8000ADFF8A81891F9FB
:100880000010182211FB02F10844DFF8E01991F979
:10089000001000EB81008069DFF8B01C0870DFF801
:1008A00080084168DFF8C009006801F01FFADFF82E
:1008B000C419DFF8982C92F9002051F8221001F0A9
:1008C00081FADFF8B019DFF8842C92F9002041F8A2
:1008D0002200DFF8A409DFF84C1891F90010182263
:1008E00011FB02F10844DFF8841991F9001000EBC4
:1008F0008100C069DFF8541C0870DFF824084168E3
:10090000DFF86409406801F0F1F9DFF86819DFF8F1
:100910003C2C92F9002051F8221001F053FADFF834
:100920005419DFF8282C92F9002041F8220001BD6B
:1009300080B50020DFF8181C08600020DFF8141CC8
:1009400008600020DFF828190870DFF8240990F902
:10095000000005283BDADFF81C09DFF8141991F9CB
:10096000001050F82110DFF8F00BDFF8042992F99D
:10097000002050F8220001F0B9F9DFF8D41B096813
:1009800001F020FADFF8C81B0860DFF8E808DFF89C
:10099000E01891F9001050F82110DFF8C00BDFF8D3
:1009A000D02892F9002050F8220001F09FF9DFF8DA
:1009B000A41B096801F006FADFF8981B0860DFF84D
:1009C000B0080078401CDFF8A8180870BDE7DFF811
:1009D000800B0068DFF8881B01F076F904D8DFF897
:1009E000840BDFF86C1B086001BD80B5DFF81004D4
:1009F0000068002100F0CEFF1BD2DFF8540B006826
:100A0000DFF8501B096800F0D7FFDFF85C1B0968AE
:100A100001F06CF9DFF8541B0860DFF84C0B01683B
:100A2000DFF82C0B006801F061F9DFF8441B086067
:100A30001AE0DFF81C0B0068DFF8181B096800F0EB
:100A4000BBFFDFF8241B096801F050F9DFF8201B19
:100A50000860DFF8140B0168DFF8F40A006801F0A1
:100A600045F9DFF8081B0860DFF8080B0068DFF8BD
:100A7000081B0860DFF8040BB0F9000001F014FA5D
:100A8000DFF8EC1A096800F097FFDFF8E81A086051
:100A9000DFF8E00A0068DFF8E01A096800F08CFF70
:100AA000DFF8DC1A0860DFF8DC0A0068DFF8D81A23
:100AB0000860DFF8D80AB0F9000001F0F5F9DFF8B6
:100AC000AC1A096800F078FFDFF8B81A0860DFF8A0
:100AD000B40A0068DFF8B01A096800F06DFFDFF8AB
:100AE000581D086001BD10B5DFF8880A0068DFF8FE
:100AF000A01A096800F04EFF09D25FF07E50DFF8BF
:100B0000201608600020DFF88C1A0870A0E0DFF8DB
:100B1000640A0068DFF8781A496800F03BFF1CD2CD
:100B2000DFF86C0A4068DFF84C1A096800F044FFEF
:100B30000400DFF85C0A4068DFF8541A096800F026
:100B40003BFF0100200000F077FFDFF8D4150860BC
:100B50000020DFF8401A08707AE0DFF8180A006811
:100B6000DFF82C1A896800F015FF1CD2DFF8200A84
:100B70008068DFF8001A096800F01EFF0400DFF843
:100B8000100A8068DFF8081A496800F015FF0100B4
:100B9000200000F051FFDFF8881508600120DFF821
:100BA000F419087054E0DFF8CC090068DFF8E019A8
:100BB000C96800F0EFFE1CD2DFF8D409C068DFF886
:100BC000B419096800F0F8FE0400DFF8C409C06831
:100BD000DFF8BC19896800F0EFFE0100200000F08A
:100BE0002BFFDFF83C1508600220DFF8A819087019
:100BF0002EE0DFF880090068DFF89419096900F039
:100C0000C9FE1CD2DFF888090069DFF86819096895
:100C100000F0D2FE0400DFF878090069DFF87019EF
:100C2000C96800F0C9FE0100200000F005FFDFF8F0
:100C3000F01408600320DFF85C19087008E05FF02A
:100C40007E50DFF8DC1408600420DFF848190870D3
:100C5000DFF8CC04006800F06DFF02000B000020FC
:100C6000DFF8641500F08AFF00F0FAFFDFF8B01437
:100C70004860DFF8C80B0068DFF80419096801F064
:100C800023F809D85FF07E50DFF8B01C0860002020
:100C9000DFF8AC1B0870A0E0DFF8E4080068DFF8BC
:100CA0009C1B496800F076FE1CD2DFF8900B406870
:100CB000DFF8CC18096800F07FFE0400DFF87C0B39
:100CC0004068DFF8781B096800F076FE010020001C
:100CD00000F0B2FEDFF8641C08600020DFF8601B43
:100CE00008707AE0DFF898080068DFF8501B896820
:100CF00000F050FE1CD2DFF8440B8068DFF880184B
:100D0000096800F059FE0400DFF8300B8068DFF856
:100D10002C1B496800F050FE0100200000F08CFE02
:100D2000DFF8181C08600120DFF8141B087054E07D
:100D3000DFF84C080068DFF8041BC96800F02AFEE1
:100D40001CD2DFF8F80AC068DFF83418096800F030
:100D500033FE0400DFF8E40AC068DFF8E01A8968AF
:100D600000F02AFE0100200000F066FEDFF8CC1B38
:100D700008600220DFF8C81A08702EE0DFF80008CB
:100D80000068DFF8B81A096900F004FE1CD2DFF829
:100D9000AC0A0069DFF8E817096800F00DFE0400EE
:100DA000DFF8980A0069DFF8941AC96800F004FEB9
:100DB0000100200000F040FEDFF8801B08600320E7
:100DC000DFF87C1A087008E05FF07E50DFF86C1BDB
:100DD00008600420DFF8681A0870DFF8600B00680C
:100DE00000F0A8FE02000B000020DFF8DC1300F08A
:100DF000C5FE00F035FFDFF8441B486010BD000061
:100E0000D812FF1FF812FF1FE812FF1FFC12FF1F6E
:100E100080B50020DFF858140870DFF8540490F90A
:100E20000000062819DA0020DFF8141BDFF8402440
:100E300092F9002041F822000020DFF8081BDFF8BB
:100E4000302492F9002041F82200DFF824040078D1
:100E5000401CDFF81C140870DFE7DFF8EC0ADFF84D
:100E6000341791F90010182211FB02F10844DFF841
:100E7000D01991F9001050F82100DFF8D016087051
:100E8000A7480168DFF8E003006800F02FFFDFF8F3
:100E9000B01ADFF8B82692F9002051F8221000F0BD
:100EA00091FFDFF89C1ADFF8A42692F9002041F8A0
:100EB0002200DFF8940ADFF8DC1691F900101822FE
:100EC00011FB02F10844DFF8781991F9001000EBEA
:100ED00081004068DFF87416087091480168E248A4
:100EE000406800F003FFDFF8581ADFF8602692F937
:100EF000002051F8221000F065FFDFF8441ADFF8F7
:100F00004C2692F9002041F82200DFF83C0ADFF875
:100F1000841691F90010182211FB02F10844DFF841
:100F2000201991F9001000EB81008069DFF81C1690
:100F300008707B484168CC48006800F0D7FEDFF8B5
:100F4000001ADFF8082692F9002051F8221000F06C
:100F500039FFDFF8EC19DFF8F42592F9002041F8A9
:100F60002200DFF8E409DFF82C1691F900101822AE
:100F700011FB02F10844DFF8C81891F9001000EBEA
:100F80008100C069DFF8C415087065484168B6483B
:100F9000406800F0ABFEDFF8A819DFF8B02592F941
:100FA000002051F8221000F00DFFDFF89419DFF84F
:100FB0009C2592F9002041F82200DFF89009DFF823
:100FC000D41591F90010182211FB02F10844DFF842
:100FD000701891F9001050F82100DFF870150870B2
:100FE0004F480168A048006800F080FEDFF85419FF
:100FF000DFF8582592F9002051F8221000F0E2FEA7
:10100000DFF84019DFF8442592F9002041F822006A
:10101000DFF83809DFF87C1591F90010182211FB70
:1010200002F10844DFF8181891F9001000EB810074
:101030004068DFF818150870394801688A48406828
:1010400000F054FEDFF8FC18DFF8002592F90020CC
:1010500051F8221000F0B6FEDFF8E818DFF8EC24B3
:1010600092F9002041F82200DFF8E008DFF82415AB
:1010700091F90010182211FB02F10844DFF8C017A3
:1010800091F9001000EB81008069DFF8C01408704E
:10109000234841687448006800F028FEDFF8A4186F
:1010A000DFF8A82492F9002051F8221000F08AFEFF
:1010B000DFF89018DFF8942492F9002041F822001C
:1010C000DFF88808DFF8CC1491F90010182211FB22
:1010D00002F10844DFF8681791F9001000EB810075
:1010E000C069DFF8681408700D4841685E484068C0
:1010F00000F0FCFDDFF84C18DFF8502492F90020D6
:1011000051F8221000F05EFEDFF83818DFF83C24BA
:1011100092F9002041F8220001BD0000380DFF1FA8
:10112000E811FF1F2114FF1F80B50020DFF82018F1
:1011300008600020DFF81C1808600020DFF818188D
:101140000870DFF8140890F9000005283BDADFF892
:10115000F007DFF8041891F9001050F82110DFF8BB
:10116000FC07DFF8F42792F9002050F8220000F085
:10117000BDFDDFF8DC17096800F024FEDFF8D017AA
:101180000860DFF8C007DFF8D01791F9001050F8B9
:101190002110DFF8CC07DFF8C02792F9002050F8C3
:1011A000220000F0A3FDDFF8AC17096800F00AFE8A
:1011B000DFF8A0170860DFF8A0070078401CDFF810
:1011C00098170870BDE701BD0000F03F10B5DFF8CB
:1011D00094070088DFF890170880DFF8740700682C
:1011E000002100F071FD07D2DFF86407006890F07D
:1011F0000040DFF85C170860DFF85807006800213E
:1012000000F062FD07D2DFF84C07006890F0004064
:10121000DFF840170860DFF838070168D548006834
:1012200000F064FD0400D3480068D349096800F069
:10123000C3FBDFF82017096800F058FD210000F01B
:10124000C1FD00F043FEDFF824170880DFF818071F
:101250000188DFF8180700884118DFF808070180C7
:1012600010BD00004C0DFF1FF011FF1F2214FF1FC7
:101270002014FF1F0013FF1F880DFF1F10B5C1486A
:101280000068C349096800F085FB08D25FF07E5012
:10129000DFF8DC1608600020BE49087083E0B9481A
:1012A0000068BB49496800F075FB17D2B848406830
:1012B000B449096800F080FB0400B5484068B449AF
:1012C000096800F079FB0100200000F0B5FBDFF8B1
:1012D000A01608600020AF49087064E0A9480068C3
:1012E000AB49896800F056FB17D2A9488068A54928
:1012F000096800F061FB0400A5488068A4494968BA
:1013000000F05AFB0100200000F096FBDFF86016A9
:10131000086001209F49087045E09A4800689C4990
:10132000C96800F037FB17D29948C0689549096829
:1013300000F042FB04009648C0689549896800F0B7
:101340003BFB0100200000F077FBDFF8241608606B
:1013500002209049087026E08A4800688C49096993
:1013600000F018FB17D28A4800698649096800F026
:1013700023FB0400864800698549C96800F01CFB0E
:101380000100200000F058FBDFF8E415086003209E
:101390008049087007E05FF07E50DFF8D4150860E0
:1013A00004207C490870DFF8C805006800F0C2FB23
:1013B00002000B000020DFF8BC1500F0DFFB00F09E
:1013C0004FFCDFF8AC154860DFF870040068DFF808
:1013D0006814096800F078FC09D85FF07E50DFF8E7
:1013E0005C1508600020DFF8581408709BE0DFF8F7
:1013F00048040068DFF84414496800F0CBFA1CD2B6
:10140000DFF838044068DFF83014096800F0D4FAD7
:101410000400DFF828044068DFF82014096800F0B1
:10142000CBFA0100200000F007FBDFF81015086080
:101430000020DFF80C14087075E0DFF8FC0300688A
:10144000DFF8F813896800F0A5FA1CD2DFF8EC0386
:101450008068DFF8E413096800F0AEFA0400DFF8F2
:10146000DC038068DFF8D413496800F0A5FA0100B6
:10147000200000F0E1FADFF8C41408600120DFF872
:10148000C01308704FE0DFF8B0030068DFF8AC135A
:10149000C96800F07FFA1CD2DFF8A003C068DFF84B
:1014A0009813096800F088FA0400DFF89003C06818
:1014B000DFF88813896800F07FFA0100200000F04F
:1014C000BBFADFF8781408600220DFF874130870A4
:1014D00029E0DFF864030068DFF86013096900F0B1
:1014E00059FA18D2DFF854030069D349096800F0AB
:1014F00063FA0400D1480069D049C96800F05CFA79
:101500000100200000F098FADFF830140860032092
:10151000CB49087007E05FF07E50DFF820140860C8
:101520000420C7490870DFF81404006800F002FBCB
:1015300002000B000020DFF83C1400F01FFB00F05D
:101540008FFBDFF8F813486010BD00001314FF1F75
:101550001813FF1F1C13FF1F600DFF1F740DFF1FCB
:101560000100344200003442340DFF1F2413FF1FDA
:101570002013FF1F3013FF1F2813FF1F0814FF1F26
:101580003813FF1F3413FF1F2C13FF1F0A14FF1FF4
:10159000180EFF1F1114FF1F80B50020DFF8B813CD
:1015A0000870DFF8B40390F90000062819DA00206B
:1015B000DFF88C13DFF8A02392F9002041F8220015
:1015C0000020DFF88013DFF8902392F9002041F823
:1015D0002200DFF884030078401CDFF87C130870D9
:1015E000DFE7DFF86403DFF8901391F900101822A9
:1015F00011FB02F10844924991F9001050F82100C2
:10160000DFF878130870DFF868030168DFF82C034F
:10161000006800F06BFBDFF82813DFF8602392F915
:10162000002051F8221000F0CDFBDFF81413DFF892
:101630004C2392F9002041F82200C348DFF8381308
:1016400091F90010182211FB02F108447C4991F92C
:10165000001000EB81004068DFF820130870C448D8
:101660000168B648406800F041FBB549C34A92F9A9
:10167000002051F8221000F0A5FBB149BF4A92F9B1
:10168000002041F82200B048BB4991F9001018220F
:1016900011FB02F108446A4991F9001000EB810046
:1016A0008069B6490870B2484168A448006800F0F3
:1016B0001DFBA349B14A92F9002051F8221000F015
:1016C00081FB9F49AD4A92F9002041F822009E48D3
:1016D000A94991F90010182211FB02F10844584958
:1016E00091F9001000EB8100C069A4490870A0487E
:1016F00041689248406800F0F9FA91499F4A92F98E
:10170000002051F8221000F05DFB8D499B4A92F9B0
:10171000002041F822008D48974991F900101822C5
:1017200011FB02F10844464991F9001050F82100DC
:10173000924908708E4801688048006800F0D6FA27
:1017400080498E4A92F9002051F8221000F03AFBAD
:101750007C498A4A92F9002041F822007B48864958
:1017600091F90010182211FB02F10844344991F953
:10177000001000EB81004068804908707C480168D7
:101780006E48406800F0B2FA6E497C4A92F9002037
:1017900051F8221000F016FB6A49784A92F90020AD
:1017A00041F822006948744991F90010182211FB90
:1017B00002F10844224991F9001000EB8100806990
:1017C0006E4908706A4841685C48006800F08EFA0B
:1017D0005C496A4A92F9002051F8221000F0F2FAAE
:1017E0005849664A92F9002041F822005748624958
:1017F00091F90010182211FB02F10844104991F9E7
:10180000001000EB8100C0695C49087058484168CD
:101810004A48406800F06AFA4A49584A92F900205A
:1018200051F8221000F0CEFA4649544A92F90020AD
:1018300041F8220001BD00003C13FF1F2C0EFF1FCA
:101840001214FF1F80B50020414908600020414963
:1018500008600020404908703F4890F900000528C2
:101860002DDA37483C4991F9001050F821103B48D7
:10187000394A92F9002050F8220000F037FA344932
:10188000096800F09FFA324908602E48324991F900
:10189000001050F8211032482F4A92F9002050F8D9
:1018A000220000F023FA2B49096800F08BFA29493D
:1018B000086029480078401C27490870CCE701BD22
:1018C00010B52F4800882F49088021480068002162
:1018D00000F0FAF905D21E48006890F000401C495B
:1018E00008601C480068002100F0EEF905D2194894
:1018F000006890F0004017490860154801682248C8
:10190000006800F0F3F904001F4800681F490968E7
:1019100000F052F80F49096800F0E8F9210000F0E2
:1019200051FA00F0D3FA1A4908801648018818487D
:10193000008841181248018010BD0000F011FF1FFF
:101940004813FF1F6013FF1F680EFF1FF80EFF1FD5
:101950004013FF1F4413FF1F2014FF1F400EFF1FE3
:10196000540EFF1FFC13FF1F0614FF1F0014FF1F60
:10197000E811FF1F0000F03F1114FF1F1314FF1F99
:10198000FE13FF1F0414FF1F3413FF1F2C13FF1F30
:101990000214FF1F4FF0807C1CEB400F94BF1CEB28
:1019A000410F05E040EA010C1CEB0C0F01D288420C
:1019B000704718BF8142704790EA010F40F10882DA
:1019C00081F00041421A3CBF801A89184FF0004C48
:1019D000C0F3C752FF2A24D0C1F3C75313B3D21A9E
:1019E000D2F1190327DD4CEA01214CFA03F321EA75
:1019F0000303D140C20D4CEA0020401834BF20EA56
:101A00000C004CEA5000D20553EA006373EB0C0C57
:101A100052EB1020420012F1807F38BF7047C00D9A
:101A2000C0057047490212BF9A4200EB5120F8E707
:101A3000D2F11703D9D5704710B5FF2313EAD0545C
:101A40001DBF13EAD1529C429A4239E0A41ADA0728
:101A500080EA0103134042EA012142EA0020421ACF
:101A60003CBF641E01EB4202090AB2FBF1FE01FB1E
:101A70001E221202B2FBF1F001FB10226EF30F20C6
:101A80001202B2FBF1FE4EEA00207F3406DDFE2C8E
:101A900024DA53EA500050EBC45010BDD4F10204D4
:101AA00001FB1E2240F08071192C1DDC21FA04F08C
:101AB000C4F12004A140114371F10042584110BD0E
:101AC0009C421ABF03EAD1529A420FE080EA010E0B
:101AD0000EF00043400004D0490016D143F0FF400F
:101AE00010BD490008BFD343180010BD9C4205D16A
:101AF000D21AF7D001F00041484010BD4A0212BF8F
:101B00000846484000F0004010BD4AB90902B1FA49
:101B100081F2914044B1A418C00140F000409EE71A
:101B2000C90141F0004152420002B0FA80F4A040E5
:101B3000141B94E7C0F3C75181B1FF2906D0C1102F
:101B4000400721F0E04101F16051704741020CBFB4
:101B500040F4E0016FF000410020704700F00041C8
:101B600000020AD0B0FA80FC00FA0CF001F16051DA
:101B7000A1EB0C5101EBD0214005704770B44FF040
:101B8000004591EA030F40F1BF816B40841A71EB6D
:101B9000030603D2001BB141121973414FF4001C1C
:101BA0001CEB410F34BF7CEB430442E00C0DA4EB73
:101BB0001356352E4FDC45EAC323DB0A45EAC12123
:101BC000C912B6F120050DDD63FA05F6EB4086EA91
:101BD0000305124218BF45F00105C01851F100017C
:101BE0000CD213E062FA06F5F2405540F3415A4038
:101BF000B340F3405A408018594107D349085FEA7F
:101C000030005FEA350528BF45F0010501F5801178
:101C1000420875F1004250F1000041EB04514E00C2
:101C200016F5001F70BC38BF70470020090D09056C
:101C300070471CEB410F10D252EA43060BD0BCEBAD
:101C4000410F05D80C0DAB43661E342EB6DD02E005
:101C5000AB438018594170BC704770BC704700009E
:101C600001F000428B1AA3F16051B1F5801F0ADB2D
:101C7000B1F17F6F1FD242EAC102C10071F1004190
:101C800042EB507070470B15C3F10903212B10D2A2
:101C9000890241EA905180020128494141F0004106
:101CA00021FA03F0C3F12003994071F10041504142
:101CB0007047100070476FF0000013EB103F5CBFDF
:101CC000000E42EAC05070474FF0807C1CEB400F82
:101CD00094BF1CEB410F05E040EA010C1CEB0C0F1C
:101CE00001D28142704718BF88427047FF2212EA32
:101CF000D05C1DBF12EAD153944593422BE09C4423
:101D0000D30780EA01021A4043EA002043EA012196
:101D1000A1FB0030C04238BF40007CF17F010BDBEB
:101D2000FE294ADA5B0842EAC15153EA006373F1C3
:101D3000004C51EB10207047D1F1080CDCF1200170
:101D40002FDB5B0810FA01F10B4320FA0CF073F162
:101D500000415041704794451CBF02EAD153934261
:101D600080EA010202F000421DD0400019D0490073
:101D700017D05BB9634514D00902B1FA81F39940D9
:101D8000BCEB030CC00140F00040C1E70002B0FA18
:101D900080FC10FA0CF0B3EB0C0CC90141F00041CF
:101DA000B6E71000704740000AD0490008D010F193
:101DB000807F94BF11F1807F02E042F0FF407047C6
:101DC000D043704790EA010F7FF5FCAD81F00041F0
:101DD000431A4FF000423EBF5340C01AC91800BF1B
:101DE000D3095FEAD05C13EB400F34BFB3EB410F74
:101DF00040E07CEBD1530CD342EA012122D8D1EB55
:101E0000402009D3400A28BF5FEA500140EBCC5084
:101E10007047401A15D04002B0FA80F2521C904030
:101E2000400A4FEA3C23B3EB026384BF00EB73002C
:101E300007E040F400001A16DB07C2F10102D040AF
:101E400018437047182BFCDC31FA03F202FA03F353
:101E5000591A38BF42F00102D2EB40203CBF40008B
:101E6000ACF1010C5FEACC5CC20572F100414CEBB5
:101E70005020704713EB400F0FD2C94209D0ACEB92
:101E8000D153022B03DB4902172BDDDD7047914351
:101E9000401AC042D5D10020704713EB410FD0D378
:101EA0006FF0000070470000C2175040801AB0FA6F
:101EB00080F10AD08840D1F19D01D20742EAC15198
:101EC000020672F1004241EB10207047C0F3C75187
:101ED0007E390EDDC217D1F1200106DD000240F08F
:101EE0000040C840104450407047D04380F000404C
:101EF000704700207047000070B44FF0004591EA31
:101F0000030F7FF543AE6B40841A71EB030604D2D6
:101F10006E40001BB141121973414FF4001C1CEBC1
:101F2000410F34BF7CEB430682E00C0DA4EB13564B
:101F3000362E7BDC012E45EAC32341DC43EA5253B3
:101F400012BFD20292025B08240545EAC12141EA90
:101F50005051D2EBC020994125D407D1B0FA80F678
:101F600010FA06F162D00020203608E0B1FA81F6BE
:101F7000B140C6F1200220FA02F21143B0404FEA0C
:101F8000F474B4EB465434F001064FEA74040AD8F2
:101F9000D6F50016760D04F00044F04061FA06F222
:101FA0005040F1404840C00A40EA415021F0004111
:101FB00028BF5FEA500550F1000044EBD12135E025
:101FC000DB0A45EAC121C90AB6F120050EDD42EA65
:101FD0000242120CC5F1200603FA06F6EB4042EA73
:101FE00006056D42984161F100010DE062FA06F5C7
:101FF000F240554063FA06FC82EA0C02F3405A4074
:102000006D42904161EB030111F4801F05D1641E04
:10201000620502D06D004041494121F4801143081E
:1020200075F1004350F1000041EB045170BC704762
:102030001CEB410F15D223F0004352EA43060BD0AC
:102040004FEA4C0CBCEB410F04D80C0D661E342E2D
:10205000B7DDEBE7801A994150EA410608BF00213D
:10206000E4E708BF1CEB430F28BF6FF00001DDE77A
:102070002DE9F0439FB081462698DFF804898DF85A
:102080003B00174600201E4602910B900FF6883445
:102090004FF0FF350AE017F8011B0298C8470028E7
:1020A000029000F09A800B98401C0B90387850B149
:1020B0002528F0D100200021059006910790089175
:1020C00009900A9103E00B989AE041F0010117F89A
:1020D000010F2028F9D023280DD02B2804D02D283B
:1020E00006D030280AD07AE041F0020189B2EEE74A
:1020F00041F00401FAE741F00801F7E741F010016F
:10210000F4E700200D9009E00D98404505DA00EB5A
:10211000800302EB4302303A0D927F1C3A78A2F121
:1021200030000A28F0D33A782E2A18BF0C9523D114
:1021300017F8010F2A2807D1306830607F1C50F84B
:10214000042B30600C9217E02D280CBF17F8010B00
:10215000002000220C920AE040B90C9A424505DAB0
:1021600002EB820203EB4203303B0C937F1C3B7873
:10217000A3F130020A2AEFD3ADF83810204639789F
:1021800000F07EFD08B117F8010B8DF83A009DF8BC
:102190003A00682804BF3978682903D162208DF895
:1021A0003A0007E06C2804BF38786C2803D171210D
:1021B0008DF83A107F1C10A80490324617F8013BA6
:1021C0006946484600F05CF838B910AA69464846A6
:1021D00000F084F900287FF569AF284610E02A282E
:1021E0008FD13068306050F8042B3060002A0D9297
:1021F00004D5524241F004010D9289B27F1C92E74E
:102200001FB0BDE8F083622820D0682811D06A286A
:1022100003D06C2827D0712825D10868C01D20F074
:1022200007000860D0E9002308300860194610460E
:102230007047002A0A680A60106803D0121D0A60FD
:1022400000B217E0121D0A6080B217E0002A0A6887
:102250000A60106803D0121D0A6040B20AE0121D25
:102260000A60C0B20AE0002A0A680A60106803D057
:10227000121D0A60C1177047121D0A6000217047C5
:1022800070B51C460D46B4F125002E69114600F0CC
:1022900013812038022865D9133841D00B3816D065
:1022A000401E1ED0401E02285CD9001F19D0401FBE
:1022B00000F08380401E33D0401E00F0CD80C01E51
:1022C00000F0D880801E2BD0C01E29D0FAE06869AB
:1022D000421C6A610A680A6052F8043B0A6033547F
:1022E000FAE095F83A000122FFF78DFFC5E90001F9
:1022F0000023994204DA6869411C69612D210DE0CF
:10230000288F810704D56869411C69612B2105E08C
:10231000C00722D56869411C6961202131541CE045
:1023200095F83A000022FFF76EFFC5E9000195F825
:102330003800010711D5D5E900230020834208BFEA
:1023400082420AD044F02000782806D16869302102
:102350003154401C411C6961345421466869304441
:10236000E86083E00868C01D20F007000860D0E93D
:10237000002308300860C5E90023D5E90001C80F33
:1023800004D06869411C69612D210DE0288F810707
:1023900004D56869411C69612B2105E0C00704D59B
:1023A0006869411C69612021315468693044E860E2
:1023B0002146284600F0C1F98EE005F13A02507836
:1023C00020B14FF0FF340FF658005EE0107862281D
:1023D00008D0682824D06A2812D06C282ED0712802
:1023E0000ED02BE00A680A6052F8040B0A6020B98C
:1023F0004FF0FF340FF6400047E0E96A01706BE0F0
:102400000A680A6052F8040B0A6020B94FF0FF34E2
:102410000FF6240039E0EA6AD317C0E900235BE035
:102420000A680A6052F8040B0A6020B94FF0FF34C2
:102430000FF6040029E0E96A01804DE00A680A60AD
:1024400052F8040B0A6020B94FF0FF340FF2E87025
:102450001BE0E96A01603FE00A680A6052F8040B79
:102460000A600021C5E90001EE607821284600F0ED
:10247000BCF831E00868086050F8044B0860EC6074
:102480003CB94FF0FF340FF2C87000F005FC201A81
:1024900070BD2E6B002E04D5204600F01FFC0446B4
:1024A00008E032460021204600F034FC002814BF2A
:1024B000041B3446AC610FE06869411C6961252149
:1024C000315409E06869411C6961252232542000B9
:1024D00002D0481C68617454002070BD2DE9F041A1
:1024E0000F4682B00646796B7869BC6A091A386A69
:1024F000091AB869091A786A091AF869091A97F85D
:1025000038000C1B410790460FD42021002C8DF879
:1025100000100ADD254601236A463946304600F0A0
:1025200064FB00285DD16D1EF5D17B6942463946BA
:10253000304600F05AFB002853D130208DF80000BF
:102540003D6A002D09DD01236A463946304600F018
:102550004CFB002845D16D1EF5D1BB69FA683946A0
:10256000304600F042FB00283BD130208DF80000BF
:102570007D6A002D08DD01236A463946304600F0A9
:1025800034FB70BB6D1EF6D1F868B969FB6942185F
:102590003946304600F029FB18BB30208DF800008A
:1025A000BD6A002D08DD01236A463946304600F039
:1025B0001CFBB0B96D1EF6D197F8380041070DD558
:1025C0002021002C8DF8001008DD01236A463946D1
:1025D000304600F00AFB20B9641EF6D10020BDE8A9
:1025E000F6814FF0FF30BDE8F6812DE9F047044653
:1025F0008A462569BAF16F0F08BF082705D04AF04F
:102600002000782814BF0A2710273C26D4E90001AF
:10261000BAF1640F18BFBAF1690F8046894607D135
:102620000B4600218B4203DAD8F1000869EB490917
:102630000020814508BF80451FD1206BE8B9082FD5
:1026400047D194F83800010743D530203B2685F860
:102650003B003EE000280ED594F8380000F014004E
:10266000102808D1626B6069121A206A121A561A71
:10267000002EC8BF2662BDE8F087404649463A466C
:10268000FB1700F073FB3032761ED2B23A2AA4BF99
:10269000AAF151008218AA55404649463A46FB170E
:1026A00000F064FB804689460020814508BF8045D4
:1026B00003D0E068A9198842DFD3082F09D194F824
:1026C0003800010705D5A95D302902D0761E3020DB
:1026D000A855A819E060C6F13C01206BA1618142B8
:1026E000B8DA411A21624FF6EF70218F014021873D
:1026F000BDE8F0872DE9D04306460F4614464FF05B
:102700000008DFF8809212E0E00707D542464B460A
:102710003046394600F0A2FB06460F464046494681
:1027200042464B4600F09AFB641080468946002CD6
:10273000EAD130463946BDE8D0832DE9F04F044652
:102740008FB0206BD4E9009A0028884604AD48BFBA
:10275000062005D404BF48F02000672801D10120DD
:102760002063D4E9002358004015401C0DD1190303
:102770000BD0A8F1610103201A29A06102D20FF247
:10278000EC4110E00FF2E8410DE058004015401C0C
:102790000ED119030CD1A8F1610103201A29A061FF
:1027A00016D30FF2D441E068032200F029FCE3E0E5
:1027B000CDE9022323F00041B1F5801F11D200269C
:1027C000B14208BFB242019605D1DDE9020118E02D
:1027D0000FF2A041E7E7DDE9020101AA00F064FC85
:1027E00008E0694E06EB1156684901960B406849AE
:1027F00010461943019F674A47F29756774397FB64
:10280000F2F6C4E90001024621F0004300208342B1
:1028100004BF8242002300F0A780484651460022B0
:10282000002300F079FC38BF8AF0004A3246D2F12A
:102830000702019603DD5146FFF75CFF0AE05242B2
:1028400000205549FFF756FF02460B4648465146C1
:1028500000F07AFC814648F0200BBBF1660F206B3C
:1028600006BF019E0A3606263618142EC8BF142647
:1028700030208A468DF810000DF11107002E33DD4F
:102880004846514600F084FD01460A4607F1080318
:1028900004200A27B2FBF7F707EB8705A2EB4502F6
:1028A000303203F8012C0A22B7FBF2F202EB820568
:1028B000A7EB45073037401E03F8027DE9D1083EFB
:1028C000002E03F10807D9DD084600F075FD024629
:1028D0000B4648465146FFF751F900222F4B00F0B6
:1028E000BDFA81468A46CBE70DF111003F1A0DF182
:1028F000110504E00198401E7F1E01906D1C287890
:102900003028F7D0BBF1660F02D10198401C04E0DB
:10291000BBF1650F0CBF01200020236BC3189F4241
:10292000B8BF7B1E002B1ED4BB4204DAE85C3528FE
:10293000A8BF392000DA302019466A1E02EB0109CF
:1029400000E05B1E19F801A9491E8245F9D039281B
:1029500002D1685C401C6854002904D50198401CD1
:1029600015465B1C0190019800B200901BB22A46EC
:102970004146204600F014F80FB0BDE8F08F00008B
:10298000CBCCCC0C0000244002FCFFFFFFFF0F80EB
:102990000000E03FA08601000000F03F84D797418F
:1029A0002DE9F04786B00546894692461F4600F05D
:1029B00011FD002F406A2E6B90F8008002DC012789
:1029C0000FF2B82ABDF9384049F02000662808BF48
:1029D000641C13D0672840F0898014F1040F74DB65
:1029E000B44272DA95F83800641C010702D4B74289
:1029F000B8BF3E4624B2361B48BF002624B2E86862
:102A0000A969002C22DC4A1C30234354002E03DC2D
:102A100095F83800010703D5E86800F80280521CD9
:102A2000E642B8BF744224B2A6196042BE42B8BFA3
:102A30003746AA6168623FB2EF61E868AB693A461F
:102A40005146184400F0DCFAF61B18E02246974283
:102A5000084416DA3A46514600F0D2FAA9697918C4
:102A6000E01B002EA961686203DC95F838000207BC
:102A700005D5E86800F80180E869401CE861AE62AD
:102A80009CE0514600F0BCFAA86920183F1B002EBC
:102A900003DC95F838100A0703D5E96801F80080CF
:102AA000401CA8613FB2BE42B8BF3746E868AB6978
:102AB0003FB23A460AEB0401184400F0A1FAA869B3
:102AC0003818A861F61B6E6278E0B74204DA95F810
:102AD00038100A0758BF3E46761E48BF0026B9F197
:102AE000670F0CBF4FF065094FF04509A969EB6806
:102AF000481CA861002E1AF8012B5A5403DC95F8E3
:102B000038100A0717D5E968431CAB6101F800804B
:102B1000002E10DD7F1E3FB2BE42B8BF3746E868C8
:102B20003FB23A465146184400F06AFAA86938188C
:102B3000A861F61B6E62E868A9690844002C80F859
:102B4000009004D42B21417000F1020A04E02D21F1
:102B5000417000F1020A64424FF000086E4609E03D
:102B60000A2203A800F03CFC049806F8010B08F1C7
:102B70000108039C21B20029F2DCB8F1010F06DC48
:102B800049F02000652804BF30200AF8010BB8F195
:102B9000000F0AD130200AF8010B09E0A8F1010862
:102BA0001DF8080030300AF8010BB8F1000FF5DC11
:102BB000E868A9690844AAEB0000E86195F83800C4
:102BC00000F0140010280DD16969A8694118686ADD
:102BD0004118E8694118A86A4118686B8142BCBF76
:102BE000411A296206B0BDE8F087F8B505460E46E1
:102BF00017461C46002074B117F8011BB068A8479F
:102C0000B06030B1F06A401CF0620020641EF3D165
:102C1000F2BD4FF0FF30F2BD686A6C747A4C000070
:102C20007072696E74665F733A20256E20646973F2
:102C3000616C6C6F776564007072696E74663A20BF
:102C400062616420256E20617267756D656E740027
:102C50007072696E74665F733A20626164202573D6
:102C600020617267756D656E740000006E616E00A4
:102C70004E414E00696E6600494E4600300000002D
:102C80000278C9B28A421AB11CBF10F8012FF9E7C5
:102C900018BF00207047000080B508B90FF21C0073
:102CA00005490B681BB122220021984701E000F082
:102CB0009EFB222002BD00009813FF1F636F6E73FE
:102CC000747261696E742068616E646C65723A201A
:102CD000626164206D6573736167650000F10103D3
:102CE000810704D010F8011B89B18107FAD102686D
:102CF000B2F10131914311F0803F04BF50F8042F2D
:102D0000F6E710F8011B11B110F8011BFBE7C01A20
:102D100070470000C9B2830706D0521E22D310F8B4
:102D2000013B9942F7D11FE0083A13D302F10402A4
:102D300041EA012141EA014150F8043B121F21BF41
:102D40004B40A3F1013C2CEA030C1CF0803FF3D074
:102D5000C9B2001F083210F8013B521E28BF91EA89
:102D6000030FF8D818BF0120401E70471B4213D133
:102D7000094236D12AB18446B0FBF2F002FB10C200
:102D8000704700F037BBFCD30022002370470B00D4
:102D90000200002100207047904271EB030CF6D333
:102DA00070B5B1FA81F4B3FA83F52C1BA340C4F1DA
:102DB000200532FA05F63343A2405FF00046E640B4
:102DC00002E05B085FEA3202841A71EB030524BF5C
:102DD000204629467641F4D302000B003000002142
:102DE00070BD012ACFD970B5140C20D0B1FA81F48E
:102DF000B2FA82F5C4F120046419B4F12006D6D3E6
:102E0000B2405FF00044F440002502E052085FEA5F
:102E10003303C61A71EB020E24BF3046714664417B
:102E20006D41F3D302000B002000290070BD0C4659
:102E3000B1FBF2F102FB11452D0445EA1045B5FB4B
:102E4000F2F402FB145580B240EA0545B5FBF2F0FE
:102E500002FB105240EA044070BD0000B0B581EAA8
:102E6000030C0CF0004C40F2FF7515EA11541DBF25
:102E700015EA1357AC42AF4239E0E41923EA45534F
:102E800043F48013C90241F0004141EA505EC70299
:102E90001100A7FB020200284FF00000EEFB01200A
:102EA0004FF00001E3FB072118BF42F00102401878
:102EB00000214941E3FB0E01A4F580640F0302D217
:102EC00052004041494154F101046CDD470872F160
:102ED000004250F1000051EB0451A1F580115CBF9C
:102EE00041EA0C01B0BD4CEA05510020B0BD05EA35
:102EF0001357AC4214BFAF4241E050EA410E1CBF31
:102F000052EA430E02E061460020B0BD24423C4438
:102F10001BD15FEA070EF6D0090302BF014600206D
:102F2000AEF1140EB1FA81F7AEEB070401FA07FE19
:102F30000C37C7F1200100FA07F7C8404EEA000E2F
:102F400023EA455343F48013A2E733F00043B3FA76
:102F500083F704BFB2FA82FE77440B3FE41BB7F15C
:102F6000200E2FBF02FA0EF3BB40C7F1200E22FA4B
:102F70000EFE38BF43EA0E03BA40641C82E750EAF3
:102F8000410E14BF52EA430E6FF000014FF40017D8
:102F900017EB430F8ABF194617EB410FB5E74CEA11
:102FA00005510020B0BDD4F10104B4F120070FDABF
:102FB000C4F12007520828BF42F0010210FA07F5B9
:102FC00001FA07F7E1BF2A43E0403843E1400FE050
:102FD000352C98DCC7F1200452EA400220FA07F2AF
:102FE00018BF42F0010231FA07F0A1400A43002164
:102FF00072F1004250F1000051EB0C01B0BD000035
:1030000062B38B0708D0521E11F8013B00F8013B58
:1030100000F024808B07F6D1830740F0208000BFAA
:10302000103A07D330B4B1E83810103AA0E838109D
:10303000F9D230BC530724BFB1E80810A0E808104B
:1030400044BF51F8043B40F8043BD20724BF31F899
:10305000022B20F8022B44BF0B7803707047121F1D
:1030600017D35B0009D151F8043B20F8023B1B0C3D
:10307000121F20F8023BF6D20BE051F8043B00F897
:10308000013B1B0A20F8023B1B0C121F00F8013BFE
:10309000F3D238BF121D521E24BF11F8013B00F8B5
:1030A000013BF8D87047000010B5144600F002F854
:1030B000226010BDC1F30A5343B14A0012F5001F4C
:1030C00028D2A3F2FE32A1EB0251704750EA410C24
:1030D00020D001F0004C31EA0C01B1FA81F204BFBA
:1030E000B0FA80F3D2180B3AB2F120032CBF00FAE9
:1030F00003F1914041EA0C013EBFC2F1200C20FADD
:103100000CF319439040524240F2FD33D21A01EBC6
:1031100003517047002270474FF4001C1CEB410F15
:1031200094BF1CEB430F09E041EA030C50EA4C0C3E
:1031300052EA0C0C03D2994208BF9042704714BF68
:103140008B42824270470000F0B540F2FF7581EA81
:10315000030C0CF0004C15EA11541DBF15EA13576F
:10316000AC42AF42E5E0BC41C1F31301C3F313032A
:10317000801A994143F4801304D2641E40004941EF
:1031800080185941C90241EA5051B1FBF3F603FBE3
:103190001611A2FB0675D7EBC020A94102D2761EFC
:1031A00080185941C90241EA5051B1FBF3FE03FBBB
:1031B0001E11A2FB0E75D7EBC020A94103D2AEF1C0
:1031C000010E80185941890241EA9051760546EA7C
:1031D0008E2EB1FBF3F603FB1611A2FB0675D7EB9F
:1031E0008020A94102D2761E80185941C90241EAC5
:1031F00050514EEA060EB1FBF3F603FB1611A2FB8B
:103200000675D7EBC020A94102D2761E801859411D
:10321000C90241EA5051B1FBF3F703FB1711A2FBBE
:103220000735D3EBC020A94167F100070CBF00426E
:1032300047F0010766F3D5274FEA1E31B80814F5A9
:10324000806412DDBD0775F1004250EB0E5051EB6A
:10325000045111F5801F5CBF41EA0C01F0BD4CF038
:103260007F6141F0E0410020F0BDBD076D0840EAFC
:103270000E5041F48011D4F10104B4F120060ADAB1
:10328000C4F120060200E04001FA06F3E1401843D1
:10329000B24015430EE0342C13DCC6F1200445EA9D
:1032A00040056D0820FA06F2154321FA06F0A14008
:1032B0000D43002175F1004250F1000051EB0C016B
:1032C000F0BD00205FEA0C01F0BDCFB992185B4160
:1032D000B3FA83F704BFB2FA82F6BF190B3FB7F116
:1032E00020062FBF02FA06F3BB40C7F1200622FAE0
:1032F00006F638BF3343BA401CB1E419641E33E705
:103300007F4231F00041B1FA81F404BFB0FA80F697
:10331000A4190B3CB4F120062FBF00FA06F1A1401E
:10332000C4F1200620FA06F638BF3143A0403C1B0A
:103330001AE7AC421ABF05EA1357AF4212E050EA4F
:1033400041061CBF52EA4306BFE750EA4107304638
:1033500061461CBF41EA0551F0BD52EA430C08BF6B
:10336000C143F0BD00204FF4001616EB410F98BF8B
:1033700016EB430F08BF16EB410F24BFC14305E016
:1033800016EB430F0CBF61464CEA0551F0BD00003F
:10339000400D491840EA81200CD2490DA1F5806109
:1033A000491C40F0004005DBD1F11F0154BFC8406B
:1033B000C017704700207047014648B1B0FA80F14D
:1033C0008840C91CC1F58461090501EBD021400585
:1033D000704700000148704700000000980FFF1F71
:1033E00091FBF2F303FB1211C0E900317047012099
:1033F00000F002B870470000202109032631182090
:10340000ABBEF9E70000803F0000803F000020C213
:103410000000C8C1000000000000C84100002042B8
:103420000000C8C1000070C1000000000000704131
:103430000000C841000000C0000080BF0000000084
:10344000CDCC4C3FCDCCCC3FCDCC4CBFCDCCCCBEED
:1034500000000000CDCCCC3ECDCC4C3F04000000A1
:10346000040000000400000003000000020000004F
:10347000050000000400000003000000030000003D
:103480000200000001000000050000000400000030
:103490000300000002000000010000000000000026
:1034A0000500000003000000020000000100000011
:1034B0000100000000000000050000000200000004
:1034C00001000000000000000000000000000000FB
:1034D00005000000050000000500000005000000D8
:1034E00005000000050000000500000003000000CA
:1034F00001000000000000000000000003000000C8
:1035000005000000020000000100000001000000B2
:1035100001000000020000000500000002000000A1
:103520000100000001000000010000000200000096
:10353000050000000300000002000000020000007F
:10354000020000000300000005000000040000006D
:10355000030000000300000003000000040000005E
:103560000500000005000000050000000500000047
:10357000050000000500000005000000E40CE40C5C
:10358000E40CE40C00B0034000B00B40000000006D
:10359000000000000000000000000000000000002B
:1035A000000000000000000000004E6F6E4D6173CF
:1035B0006B61626C65000000004861726446617571
:1035C0006C740000000000004D656D4D616E616718
:1035D000656D656E7400004275734661756C7400AC
:1035E00000000000000055736167654661756C74EA
:1035F00000000000000000000000000000000000CB
:1036000000000000000000000000000000000000BA
:1036100000000000000000000000000000000000AA
:10362000000000000000000000000000000000009A
:1036300000535643616C6C00000000000000000065
:1036400044656275674D6F6E69746F7200000000AB
:1036500000000000000000000000000000005065B5
:103660006E645356000000000000000000537973A0
:103670005469636B0000000000000000444D4130BD
:103680000000000000000000000000444D41310037
:1036900000000000000000000000444D4132000026
:1036A000000000000000000000444D413300000015
:1036B0000000000000000000444D41340000000004
:1036C00000000000000000444D41350000000000F3
:1036D000000000000000444D4136000000000000E2
:1036E0000000000000444D413700000000000000D1
:1036F00000000000444D41380000000000000000C0
:10370000000000444D4139000000000000000000AE
:103710000000444D41313000000000000000000076
:1037200000444D4131310000000000000000000065
:10373000444D413132000000000000000000004410
:103740004D41313300000000000000000000444DF6
:1037500041313400000000000000000000444D41F1
:10376000313500000000000000000000444D415FC2
:103770004572726F720000000000004D434D000062
:10378000000000000000000000004654464C00000D
:10379000000000000000000000526561645F436F9C
:1037A0006C6C6973696F6E004C56445F4C565700E1
:1037B000000000000000004C4C570000000000001A
:1037C0000000000000005761746368646F670000C8
:1037D0000000000000524E47000000000000000002
:1037E00000000000493243300000000000000000EB
:1037F00000000049324331000000000000000000DA
:10380000000053504930000000000000000000009C
:10381000005350493100000000000000000000008B
:103820005350493200000000000000000000004337
:10383000414E305F4F525F4D425F627566004341BB
:103840004E305F4275735F4F666600000043414E25
:10385000305F4572726F72000000000043414E30CD
:103860005F54785F5761726E696E6743414E305F97
:1038700052785F5761726E696E6743414E305F5791
:10388000616B655F55700000005265736572766507
:10389000643531000000000052657365727665641E
:1038A0003532000000000043414E315F4F525F4D02
:1038B000425F6275660043414E315F4275735F4FF0
:1038C000666600000043414E315F4572726F7200C0
:1038D0000000000043414E315F54785F5761726EC3
:1038E000696E6743414E315F52785F5761726E690E
:1038F0006E6743414E315F57616B655F55700000E5
:103900000052657365727665643539000000000009
:1039100052657365727665643630000000000055AC
:10392000415254305F52585F5458000000005541D6
:103930005254305F45525200000000000055415281
:1039400054315F52585F54580000000055415254A2
:10395000315F455252000000000000554152543280
:103960005F52585F54580000000055415254325F76
:1039700045525200000000000055415254335F523E
:10398000585F54580000000055415254335F45526F
:103990005200000000000055415254345F52585FFD
:1039A00054580000000055415254345F45525200B3
:1039B000000000000055415254355F52585F545882
:1039C0000000000055415254355F4552520000003E
:1039D00000000041444330000000000000000000EF
:1039E00000004144433100000000000000000000DE
:1039F00000434D50300000000000000000000000B7
:103A0000434D503100000000000000000000004362
:103A10004D5032000000000000000000000046543D
:103A20004D30000000000000000000000046544D32
:103A300031000000000000000000000046544D323C
:103A40000000000000000000000000434D54000092
:103A5000000000000000000000005254430000007D
:103A6000000000000000000000526573657276657A
:103A7000643833000000000050495430000000005A
:103A80000000000000000050495431000000000018
:103A90000000000000005049543200000000000007
:103AA00000000000005049543300000000000000F6
:103AB0000000000050444230000000000000000000
:103AC00000000055534230000000000000000000DC
:103AD0000000555342444344000000000000000031
:103AE00000454E45545F313538385F54696D657215
:103AF000454E45545F5472616E736D6974000045A4
:103B00004E45545F52656365697665000000454E19
:103B100045545F4572726F720000000000493253D5
:103B20003000000000000000000000005344484343
:103B3000000000000000000000000044414330008D
:103B4000000000000000000000004441433100007C
:103B50000000000000000000005453493000000045
:103B600000000000000000004D434700000000007E
:103B7000000000000000004C5054696D65720000A8
:103B80000000000000005265736572766564313094
:103B90003200000000504F5254410000000000006D
:103BA00000000000504F525442000000000000008E
:103BB000000000504F52544300000000000000007D
:103BC0000000504F5254440000000000000000006C
:103BD00000504F525445000000000000000000005B
:103BE00052657365727665643130380000000052AA
:103BF0006573657276656431303900000000526586
:103C0000736572766564313130000000005265736F
:103C1000657276656431313100000000526573656C
:103C2000727665643131320000000052657365724E
:103C30007665643131330000000052657365727639
:103C40006564313134000000005265736572766539
:103C50006431313500000000526573657276656429
:103C6000313136000000005265736572766564314B
:103C7000313700000000526573657276656431313A
:103C80003800000000526573657276656431313921
:103C900000000000008003400090034000800B40C3
:103CA00000F00F4040F00F4080F00F40C0F00F4098
:103CB00000F10F40F0000A1D30001800320018011A
:103CC000600018186400181A6E00181F7800131886
:103CD0007D00131A8200131C8C000E1296000E1524
:103CE000A0000E18AA000E1BB4000E1EC8000C1C6B
:103CF000E1000B1EFA000A1F0001090800900440B1
:103D000000A0044000B0044000C0044000D00440C3
:103D100000A0064000B0064000C0064000D00640AB
:103D200000A00E4000B00E400000803F00000000E8
:103D30000000A04100002042000070420000A042AC
:103D400000000000000020410000A0410000F04100
:103D5000000020420000184200001C4200001C42EB
:103D600000002042000030420000C0410000A0419D
:103D7000000070410000004100000000040000004D
:103D80000400000004000000030000000200000026
:103D90000500000004000000030000000300000014
:103DA0000200000001000000050000000400000007
:103DB00003000000020000000100000000000000FD
:103DC00005000000030000000200000001000000E8
:103DD00001000000000000000500000002000000DB
:103DE00001000000000000000000000000000000D2
:103DF00005000000050000000500000005000000AF
:103E0000050000000500000005000000000020C1C2
:103E10000000A0C0000000000000A0400000204101
:103E20000000C0C0000040C0000000000000404092
:103E30000000C040000020C10000A0C00000000041
:103E40000000A04000002041000080C0000000C031
:103E5000000000000000004000008040040000005E
:103E60000400000004000000030000000200000045
:103E70000500000004000000030000000300000033
:103E80000200000001000000050000000400000026
:103E9000030000000200000001000000000000001C
:103EA0000500000003000000020000000100000007
:103EB00001000000000000000500000002000000FA
:103EC00001000000000000000000000000000000F1
:103ED00005000000050000000500000005000000CE
:103EE00005000000050000000500000003000000C0
:103EF00001000000000000000000000003000000BE
:103F000005000000020000000100000001000000A8
:103F10000100000002000000050000000200000097
:103F2000010000000100000001000000020000008C
:103F30000500000003000000020000000200000075
:103F40000200000003000000050000000400000063
:103F50000300000003000000030000000400000054
:103F6000050000000500000005000000050000003D
:103F70000500000005000000050000000000FA44F4
:103F80006A6E6B6C676D4E4F34353637F8810000C2
:103F9000F8810000F8810000F8810000F88100003D
:103FA000F8810000F8810000FFFFFFFFFFFFFFFF27
:103FB000FA810000F8810000F8810000FFFFFFFF98
:103FC000FFFF0000020401019C13FF1FEC13FF1F01
:103FD0009C13FF1F9C13FF1F000000009C13FF1F7A
:103FE000000000001410FF1F0010FF1F0000000061
:103FF00000000000000000000000000000000000C1
:1040000000000000000000000000000080B5002259
:104010000121292000F034FC00220121282000F099
:104020002FFC00220121312000F02AFC0022012176
:10403000302000F025FC01BD38B504000825012121
:10404000302000F07CFC0021292000F078FC2800C2
:10405000451EC0B2002815D0200604D50121282015
:1040600000F06DFC03E00021282000F068FC012135
:10407000292000F064FC00BF0021292000F05FFC33
:104080006400E4E731BD000038B5040008250021D4
:10409000302000F054FC0021292000F050FC2800C2
:1040A000451EC0B2002815D0200604D501212820C5
:1040B00000F045FC03E00021282000F040FC012135
:1040C000292000F03CFC00BF0021292000F037FC33
:1040D0006400E4E731BD38B504000D00B5F15000CF
:1040E000C0B2FFF7D1FFC4F3031050F01000C0B20C
:1040F000FFF7CAFF14F00F00FFF7C6FF31BD70B520
:10410000040000200500EDB2082D17DAB5F15000CB
:10411000C0B2FFF7B9FF0020FFF7B6FF1020FFF78E
:10412000B3FF00200600F6B2802E05DA2000C0B2F0
:10413000FFF782FF761CF6E76D1CE4E770BD0028F0
:1041400009D041F613210A0011004A1E89B2002944
:10415000FAD1401EF3E7704710B504002020FFF7A6
:1041600093FF2000C0B2FFF78FFF10BD10B5040011
:1041700054F04000C0B2FFF787FF10BD10B5040037
:104180008120FFF781FF2000C0B2FFF77DFF10BD47
:1041900010B504008D20FFF777FF54F01000C0B277
:1041A000FFF772FF10BD10B5040054F0A000C0B2BC
:1041B000FFF76AFF10BD10B5040054F0A400C0B2B0
:1041C000FFF762FF10BD10B5040054F0A600C0B2A6
:1041D000FFF75AFF10BD10B50400A820FFF754FFE9
:1041E0002000C0B2FFF750FF10BD10B5040054F01E
:1041F000AE00C0B2FFF748FF10BD10B5040054F088
:10420000C000C0B2FFF740FF10BD10B50400D320BE
:10421000FFF73AFF2000C0B2FFF736FF10BD10B520
:104220000400D520FFF730FF2000C0B2FFF72CFFBD
:1042300010BD10B50400D920FFF726FF2000C0B242
:10424000FFF722FF10BD10B50400DA20FFF71CFFB6
:1042500054F00200C0B2FFF717FF10BD10B5040004
:10426000DB20FFF711FF2000C0B2FFF70DFF10BDEC
:1042700080B5FFF7CBFE0121292000F060FB002173
:10428000312000F05CFB3220FFF759FF0121312083
:1042900000F055FB0020FFF7A8FF8020FFF7BFFFCD
:1042A0003F20FFF798FF0020FFF7AFFF0020FFF748
:1042B0005DFF0420FFF76CFF0220FFF74DFF012098
:1042C000FFF771FF0820FFF798FF1020FFF7BBFFF3
:1042D000CF20FFF753FFF120FFF7ABFF4020FFF7A0
:1042E000BDFF0020FFF767FF0020FFF76CFF0120F4
:1042F000FFF77BFF0020FFF702FF00210020FFF700
:10430000EAFE01BD2DE9F0410400884615000026B3
:104310000027B5F12000060064B27B2C03DB0020EF
:10432000040018F10108414649B2200040B2FFF7ED
:10433000D2FE002007007FB2062F0DDADFF8340529
:1043400076B2062116FB01F108447FB2C05DC0B20F
:10435000FFF772FE7F1CEEE7BDE8F0812DE9F84F14
:1043600004000D001600002E09D52D22290049B2A7
:10437000200040B2FFF7C6FF7042834607E02B22C1
:10438000290049B2200040B2FFF7BCFFB34642F219
:104390001070BBFBF0F0814642F21070BBFBF0F1F5
:1043A00000FB11B04FF47A71B0FBF1F082464FF48C
:1043B0007A70BBFBF0F100FB11B06421B0FBF1F0AF
:1043C00000906420BBFBF0F100FB11B00A21B0FBB0
:1043D000F1F007000A20BBFBF0F100FB11B08046B2
:1043E00019F1300252B2290049B2A01D40B2FFF7C4
:1043F00089FF1AF1300252B2290049B214F10C00BF
:1044000040B2FFF77FFF009A303252B2290049B222
:1044100014F1120040B2FFF775FF17F1300252B2EB
:10442000290049B214F1180040B2FFF76BFF18F1F0
:10443000300252B2290049B214F11E0040B2FFF717
:1044400061FFBDE8F18F2DE9F84F04000D00160063
:104450001F002E22290049B2200040B2FFF752FF70
:104460004FF47A70B6FBF0F080464FF47A70B6FBEA
:10447000F0F100FB11606421B0FBF1F08146642093
:10448000B6FBF0F100FB11600A21B0FBF1F08246AF
:104490000A20B6FBF0F100FB11608346FFB2012F4A
:1044A00006D068D3032F21D00CD3042F3CD062E078
:1044B0001BF1300252B2290049B2A01D40B2FFF7F1
:1044C00021FF58E01AF1300252B2290049B2A01D72
:1044D00040B2FFF717FF1BF1300252B2290049B278
:1044E00014F10C0040B2FFF70DFF44E019F1300267
:1044F00052B2290049B2A01D40B2FFF703FF1AF1E2
:10450000300252B2290049B214F10C0040B2FFF758
:10451000F9FE1BF1300252B2290049B214F1120027
:1045200040B2FFF7EFFE26E018F1300252B2290048
:1045300049B2A01D40B2FFF7E5FE19F1300252B2B8
:10454000290049B214F10C0040B2FFF7DBFE1AF16A
:10455000300252B2290049B214F1120040B2FFF702
:10456000D1FE1BF1300252B2290049B214F11800F9
:1045700040B2FFF7C7FEBDE8F18F2DE9F04F83B0E1
:1045800005000C0016001F005FF006085FF0000930
:104590003000FDF79BFC82463000FDF797FCFDF7ED
:1045A00083FC01003000FDF707FADFF8CC12FDF7BD
:1045B0009DFBFDF78BFC83463000DFF8C012FDF752
:1045C000E9F907D22D22210049B2280040B2FFF7B5
:1045D00099FE06E02B22210049B2280040B2FFF7E5
:1045E00091FEBAF1000F01D5DAF1000AD14642F28C
:1045F0001070B9FBF0F08DF8040042F21070B9FBB6
:10460000F0F100FB11904FF47A71B0FBF1F08DF8EE
:1046100003004FF47A70B9FBF0F100FB11906421B4
:10462000B0FBF1F08DF802006420B9FBF0F100FB63
:1046300011900A21B0FBF1F08DF801000A20B9FBBE
:10464000F0F100FB11908DF800009DF804000028A7
:1046500036D09DF80420303252B2210049B2A81D54
:1046600040B2FFF74FFE9DF80320303252B22100D6
:1046700049B215F10C0040B2FFF744FE9DF802204C
:10468000303252B2210049B215F1120040B2FFF7A8
:1046900039FE9DF80120303252B2210049B215F1A5
:1046A000180040B2FFF72EFE9DF80020303252B2C3
:1046B000210049B215F11E0040B2FFF723FE80E051
:1046C0009DF8030000282DD0052080469DF803208A
:1046D000303252B2210049B2A81D40B2FFF712FE9B
:1046E0009DF80220303252B2210049B215F10C007F
:1046F00040B2FFF707FE9DF80120303252B2210090
:1047000049B215F1120040B2FFF7FCFD9DF8002000
:10471000303252B2210049B215F1180040B2FFF711
:10472000F1FD4EE09DF80200002822D004208046D2
:104730009DF80220303252B2210049B2A81D40B289
:10474000FFF7E0FD9DF80120303252B2210049B25E
:1047500015F10C0040B2FFF7D5FD9DF80020303276
:1047600052B2210049B215F1120040B2FFF7CAFD62
:1047700027E09DF80100002817D0032080469DF80F
:104780000120303252B2210049B2A81D40B2FFF7D9
:10479000B9FD9DF80020303252B2210049B215F126
:1047A0000C0040B2FFF7AEFD0BE0022080469DF802
:1047B0000020303252B2210049B2A81D40B2FFF7AA
:1047C000A1FDBBF1000F01D5DBF1000BFFB2002F03
:1047D00006D0022F18D004D3042F39D026D346E0B8
:1047E00045E03B00DBB24FF47A709BFBF0F2210016
:1047F000C9B25FFA88F8062000FB08F050FA85F08D
:10480000C0B2FFF720FE32E03B00DBB264209BFB2E
:10481000F0F22100C9B25FFA88F8062000FB08F028
:1048200050FA85F0C0B2FFF70EFE20E03B00DBB28D
:104830000A209BFBF0F22100C9B25FFA88F806203B
:1048400000FB08F050FA85F0C0B2FFF7FCFD0EE067
:104850003B00DBB25A462100C9B25FFA88F8062055
:1048600000FB08F050FA85F0C0B2FFF7ECFDBDE8A0
:10487000F78F0000E474000000401C4695BFD6335B
:1048800070B506000C0015004FF480713000C0B206
:1048900000F0D6F864B2002C13D16748F6B23100AC
:1048A000491150F821106448F6B23200521150F804
:1048B00022004269012316F01F0083409A434A6197
:1048C0003CE05D48F6B23100491150F821105A48D9
:1048D000F6B23200521150F822004269012316F05C
:1048E0001F0083401A434A61EDB2002D13D1524894
:1048F000F6B23100491150F821000168012216F08A
:104900001F00824091434C48F6B23200521150F8D9
:104910002200016012E04848F6B23100491150F817
:1049200021000168012216F01F0082401143424815
:10493000F6B23200521150F82200016070BD38B555
:1049400005000C003C48EDB22900491150F8210047
:10495000406915F01F01C840C00703D463213748E0
:1049600000F0E1F8E4B2002C13D13348EDB2290095
:10497000491150F821000168012215F01F00824002
:1049800091432D48EDB22A00521150F822000160E7
:1049900012E02948EDB22900491150F821000168C0
:1049A000012215F01F00824011432348EDB22A0076
:1049B000521150F82200016031BD10B504001E48AC
:1049C000E4B22100491150F82100406914F01F01A0
:1049D000C840C00703D47B21184800F0A4F816484B
:1049E000E4B22100491150F82110012214F01F00F7
:1049F0008240CA6010BD10B504000F48E4B2210027
:104A0000491150F82100406914F01F01C840C00747
:104A100003D58C21094800F086F80748E4B221004C
:104A2000491150F82100006914F01F04E04010F013
:104A3000010010BD00000000AC0CFF1F047F00004F
:104A400010B42C4A13684FF400740200D2B2520919
:104A500094402343274A1360274AC0B203005B11E6
:104A600052F82330012410F01F029440C3F8A040F4
:104A7000214AC0B203005B1152F82320C0B210F0EB
:104A80001F0342F8231010BC704710B4194A136872
:104A90004FF400740200D2B2520994402343154AE5
:104AA0001360154AC0B203005B1152F82330012491
:104AB00010F01F029440C3F8A04031F4E0610E4AA8
:104AC000C0B203005B1152F82320C0B210F01F03E4
:104AD00052F8232012F4E0621143074AC0B20300E7
:104AE0005B1152F82320C0B210F01F0342F82310CC
:104AF00010BC704738800440080DFF1FDFF800F03D
:104B00004910FF1FDFF800F07910FF1FBFF34F8F30
:104B10004748016811F4E061464801434448016098
:104B2000BFF34F8FFEE738B504000D00002000F002
:104B30008FF82A002100404800F0C2F8002000F061
:104B4000A4F84FF47A7000F0EAF8F2E738B5040000
:104B50000D00210049B2032000F002FA200032BD0E
:104B600010B50024042000F015FA042000F048FAE3
:104B7000002841D1002000F06BF8042000F040FA3A
:104B8000012801D101200400002000F07EF82B480C
:104B900000F096F84FF4FA7000F0C1F8E4B2012C7E
:104BA000EBD1042000F02CFA0028E6D1042000F01C
:104BB00027FA002806D1002000F067F8642000F0F2
:104BC000AEF8F3E7042000F01BFA012806D100201C
:104BD00000F05BF8322000F0A2F8F3E7184800F08C
:104BE0006FF8FFF78BFF642000F099F80020FFF7C3
:104BF00089FFFFF78BFFC0E710BD10B511480468AF
:104C0000012000F025F8012000F03FF80E48E4B242
:104C10000F2101FB04F100EB0102E4B221000B487B
:104C200000F04EF84FF47A7000F079F8EBE70000EE
:104C30000CED00E00400FA0534810000D88100008A
:104C40006881000004ED00E09805FF1FD08000009F
:104C500010B5040064B2042C07DA012201211748C0
:104C600064B2005DFFF70CFE0EE00420040020009B
:104C7000441E40B2002807D0012201210F4864B22F
:104C8000005DFFF7FDFDF2E710BD10B5040064B252
:104C9000042C05DA094864B2005DFFF78EFE0CE0D3
:104CA000042004002000441E40B2002805D0034820
:104CB00064B2005DFFF781FEF4E710BD940FFF1FA3
:104CC0000EB4C0B5024603A800210190009101ABCB
:104CD0000121044878440C30FDF7CAF906BC5DF8A0
:104CE00010FB00BFD334000010B50400002C15D019
:104CF000B4F1807F03D329210F48FFF714FF002070
:104D00000E4908600E48046000200E490860052026
:104D10000A49086009480068C003FBD510BD10B5FA
:104D200004002000441E002804D007480068FFF754
:104D3000DBFFF6E710BD0000D47D000010E000E0CE
:104D400014E000E018E000E07813FF1F2DE9F843BD
:104D500004000D0064B2002C08D0022C2CD018D313
:104D6000042C4FD03BD3052C5FD071E0DFF80C0250
:104D7000006850F48060DFF8041208604FF440715E
:104D80006620FFF75DFE4FF440716720FFF758FE85
:104D90005EE0DFF8E801006850F40060DFF8DC1145
:104DA00008604FF440714320FFF74AFE4FF4407112
:104DB0004420FFF745FE4BE0DFF8C001006850F4E7
:104DC0008050DFF8B81108604FF440716320FFF79E
:104DD00037FE4FF440716220FFF732FE38E0DFF813
:104DE0009C01006850F40050DFF8901108604FF407
:104DF00040715020FFF724FE4FF440715120FFF71F
:104E00001FFE25E0DFF87801006850F48060DFF8CD
:104E1000701108604FF440714E20FFF711FE4FF4FF
:104E200040714F20FFF70CFE12E0DFF854010068DC
:104E300050F40060DFF8481108604FF44071892099
:104E4000FFF7FEFD4FF440718820FFF7F9FDFFE703
:104E5000DFF8300164B250F82400C07810F0F3009D
:104E6000DFF8201164B251F82410C870DFF8140183
:104E700064B250F824008078DFF8081164B251F869
:104E80002410887064B2002C02D064B2012C07D1C7
:104E9000DFF8F40001684FF47A704143894606E078
:104EA000DFF8E80001684FF47A7041438946280131
:104EB000B9FBF0F00600B6B2B6F5005F02DB41F6D2
:104EC000FF700600B9FBF5F0B6B2B0EB06100700B4
:104ED000BFB2202F03DBDC212D48FFF724FE294839
:104EE00064B250F82400007810F0E0008046C6F369
:104EF000042050EA0800234964B251F824100870D5
:104F0000204864B250F8240046701E4864B250F83D
:104F10002400807A10F0E000804617F01F0050EA6D
:104F20000800184964B251F824108872154864B218
:104F300050F82400007C50F08800124964B251F807
:104F4000241008740F4864B250F82400C07850F060
:104F50000C000C4964B251F82410C870BDE8F1830C
:104F6000084A40B252F8202012791206F8D5054AB4
:104F700040B252F82020D1717047000034800440C4
:104F8000288004401C0DFF1F7813FF1F8013FF1F94
:104F9000CC7F000010B5040064B2082C0DDA0022AA
:104FA0000021224864B2005DFFF76AFC03211F481C
:104FB00064B2005DFFF769FD14E0082004002000E2
:104FC000441E40B200280DD000220021174864B2D0
:104FD000005DFFF755FC0321144864B2005DFFF744
:104FE00054FDECE710BD10B50400104864B2005D3C
:104FF000FFF701FD002801D1002000E0012010BDD5
:1050000010B50400200040B2FFF7EDFF00280AD1E0
:105010000A20FFF784FE200040B2FFF7E4FF0028DB
:1050200001D1002000E0012010BD00008C0FFF1F07
:1050300010B5DFF8C0060068DFF8BC160968FCF799
:10504000A9FC09D25FF07E50DFF8B016086000209E
:10505000DFF8AC160870A0E0DFF898060068DFF80B
:1050600098164968FCF796FC1CD2DFF88C0640685D
:10507000DFF880160968FCF79FFC0400DFF878066B
:105080004068DFF874160968FCF796FC0100200000
:10509000FCF7D2FCDFF8641608600020DFF8601629
:1050A00008707AE0DFF84C060068DFF84C16896873
:1050B000FCF770FC1CD2DFF840068068DFF834167D
:1050C0000968FCF779FC0400DFF82C068068DFF83B
:1050D00028164968FCF770FC01002000FCF7ACFCC6
:1050E000DFF8181608600120DFF81416087054E085
:1050F000DFF800060068DFF80016C968FCF74AFC14
:105100001CD2DFF8F405C068DFF8E8150968FCF781
:1051100053FC0400DFF8E005C068DFF8DC1589689F
:10512000FCF74AFC01002000FCF786FCDFF8CC15F8
:1051300008600220DFF8C81508702EE0DFF8B4051B
:105140000068DFF8B4150969FCF724FC1CD2DFF80D
:10515000A8050069DFF89C150968FCF72DFC040020
:10516000DFF894050069DFF89015C968FCF724FCA6
:1051700001002000FCF760FCDFF8801508600320C8
:10518000DFF87C15087008E05FF07E50DFF86C15E2
:1051900008600420DFF868150870DFF86005006813
:1051A000FCF7C8FC02000B000020DFF85815FCF7E4
:1051B000E5FCFCF755FDDFF844154860DFF84805CD
:1051C0000068DFF848150968FCF77EFD09D85FF034
:1051D0007E50DFF83C1508600020DFF838150870B5
:1051E000A0E0DFF828050068DFF81C154968FCF727
:1051F000D1FB1CD2DFF810054068DFF810150968F4
:10520000FCF7DAFB0400DFF800054068DFF8F8146B
:105210000968FCF7D1FB01002000FCF70DFCDFF86A
:10522000F01408600020DFF8EC1408707AE0DFF872
:10523000DC040068DFF8D0148968FCF7ABFB1CD2F3
:10524000DFF8C4048068DFF8C4140968FCF7B4FB15
:105250000400DFF8B4048068DFF8AC144968FCF798
:10526000ABFB01002000FCF7E7FBDFF8A4140860AB
:105270000120DFF8A014087054E0DFF89004006803
:10528000DFF88414C968FCF785FB1CD2DFF87804CA
:10529000C068DFF878140968FCF78EFB0400DFF8BB
:1052A0006804C068DFF860148968FCF785FB0100BA
:1052B0002000FCF7C1FBDFF8581408600220DFF87B
:1052C000541408702EE0DFF844040068DFF8381446
:1052D0000969FCF75FFB1CD2DFF82C040069DFF8DA
:1052E0002C140968FCF768FB0400DFF81C04006953
:1052F000DFF81414C968FCF75FFB01002000FCF71D
:105300009BFBDFF80C1408600320DFF8081408701A
:1053100008E05FF07E50DFF8F81308600420DFF843
:10532000F4130870DFF8E8030068FCF703FC0200E0
:105330000B000020DFF8CC13FCF720FCFCF790FCFE
:10534000DFF8CC13486010BD80B50020DFF8C8132B
:105350000870DFF8C40390F90000062819DA00206D
:10536000DFF8B813DFF8B02392F9002041F82200EB
:105370000020DFF8AC13DFF8A02392F9002041F8F9
:105380002200DFF894030078401CDFF88C130870CB
:10539000DFE7DFF89003DFF8681391F900101822B7
:1053A00011FB02F10844DFF86C1391F9001050F87A
:1053B0002100DFF874130870DFF840030168DFF89C
:1053C00050030068FCF792FCDFF85013DFF8582315
:1053D00092F9002051F82210FCF7F4FCDFF83C139E
:1053E000DFF8442392F9002041F82200DFF834036B
:1053F000DFF80C1391F90010182211FB02F1084498
:10540000DFF8101391F9001000EB81004068DFF81D
:1054100018130870B9480168BD484068FCF766FC7D
:10542000BE49C14A92F9002051F82210FCF7CAFC8B
:10543000BA49BD4A92F9002041F82200B948B04962
:1054400091F90010182211FB02F10844B14991F9B9
:10545000001000EB81008069B3490870A7484168DB
:10546000AB480068FCF742FCAC49AF4A92F9002017
:1054700051F82210FCF7A6FCA849AB4A92F900208B
:1054800041F82200A7489E4991F90010182211FB0B
:1054900002F108449F4991F9001000EB8100C069B6
:1054A000A14908709548416899484068FCF71EFC7E
:1054B0009A499D4A92F9002051F82210FCF782FC8B
:1054C0009649994A92F9002041F8220097488C4960
:1054D00091F90010182211FB02F108448D4991F94D
:1054E000001050F8210090490870844801688848ED
:1054F0000068FCF7FBFB8A498B4A92F9002051F8BF
:105500002210FCF75FFC8649874A92F9002041F897
:10551000220086487A4991F90010182211FB02F105
:1055200008447C4991F9001000EB810040687E49F5
:1055300008707248016876484068FCF7D7FB7849E4
:10554000794A92F9002051F82210FCF73BFC74498B
:10555000754A92F9002041F822007448684991F98F
:105560000010182211FB02F108446A4991F9001059
:1055700000EB810080696C490870604841686448AC
:105580000068FCF7B3FB6649674A92F9002051F8BE
:105590002210FCF717FC6249634A92F9002041F897
:1055A00022006248564991F90010182211FB02F1BD
:1055B0000844584991F9001000EB8100C0695A492C
:1055C00008704E48416852484068FCF78FFB5449C8
:1055D000554A92F9002051F82210FCF7F3FB50498C
:1055E000514A92F9002041F8220001BD80B5002007
:1055F0004F49086000204F49086000204649087064
:10560000454890F9000005282DDA4448424991F9AF
:10561000001050F8211048483F4A92F9002050F8F5
:105620002200FCF763FB42490968FCF7CBFB4049C9
:1056300008603B48384991F9001050F821103F4864
:10564000354A92F9002050F82200FCF74FFB394907
:105650000968FCF7B7FB374908602F480078401C01
:105660002D490870CCE701BD38B5314800680021EC
:10567000FCF790F905D22E48006890F000402C49C4
:1056800008602C4800680021FCF784F905D22948FD
:10569000006890F0004027490860294801682448C4
:1056A0000068FCF723FB13490968FCF71FFB0400A3
:1056B000244801681F480068FCF718FB05000D48E6
:1056C000006821490968FCF777F92900FCF70EFB0F
:1056D0002100FCF777FBFCF7F9FB1C4908801C480C
:1056E00000881C4908801948008800F2D2501849E7
:1056F000088031BDD812FF1F1804FF1FE811FF1FDB
:105700001114FF1F0000F03F2C04FF1FE812FF1FC1
:10571000F011FF1F1214FF1F1014FF1FF811FF1FBD
:105720001012FF1F6804FF1F1314FF1FF804FF1F50
:10573000E011FF1FE411FF1F4004FF1F5404FF1F6F
:105740001004FF1F1404FF1FE412FF1FF013FF1FBC
:10575000EC13FF1FEE13FF1FDFF800F0D110FF1F47
:1057600080B5022000F030FDDFF86815088000F0F9
:10577000A0FDFDF721FEDFF86025DFF86035FDF7BD
:105780006DFB00F0BDFDDFF858150880022000F029
:1057900031FD00F09BFD00F0D1FD00F006FF00F0B0
:1057A00069FFDFF840050078002807D1FFF740FCCB
:1057B000FFF7CAFDFFF71AFFFFF756FFDFF82805CE
:1057C0000078002840F0E180FAF726FEFAF7DCFFC7
:1057D000FBF7AEF8FBF709F9FBF785F9FBF718FBC8
:1057E000FBF7A2FCFBF7F2FCFBF748FDFBF7D4FE4E
:1057F000FCF728F8FCF764F8DFF8F004B0F90000D3
:1058000040F23C51884204DA40F23C50DFF8DC14AC
:105810000880DFF8D804B0F9000040F27D618842CA
:1058200004DB40F27C60DFF8C4140880DFF8BC04BD
:10583000B0F900200021012000F0CCFBDFF8B0041B
:10584000B0F90000C82803DAC820DFF8A4140880E3
:10585000DFF89C04B0F9000040F6AD51884204DB4B
:1058600040F6AC50DFF888140880DFF88404B0F903
:1058700000200521002000F0ADFB002206210020C1
:1058800000F0A8FBDFF86C04B0F90000C82803DAC8
:10589000C820DFF860140880DFF85804B0F9000071
:1058A00040F6AD51884204DB40F6AC50DFF84414BA
:1058B0000880DFF84004B0F900200421002000F047
:1058C00089FB00220021002000F084FBDFF828047F
:1058D00090F90000032807DADFF81C040078401C68
:1058E000DFF8141408701DE0DFF810040068DFF81A
:1058F00010140968FCF74EF805D2DFF804040068BC
:10590000DFF8F8130860DFF8FC030068DFF8F8132D
:105910000968FCF73FF805D2DFF8E8030068DFF814
:10592000E8130860DFF8E40300880B2812DADFF8D8
:10593000DC0340880B280DDADFF8D00380880B28C1
:1059400008DADFF8C803C0880B2803DA0120DFF883
:10595000C0130870DFF8B8030078012840F03381E5
:1059600000220421002000F035FB00220521002048
:1059700000F030FB00220621002000F02BFB00226B
:105980000021002000F026FB1DE10020DFF8741349
:1059900008600020DFF87C130860FBF726F8FBF7AF
:1059A000A2F8FBF735FAFBF7BFFBFBF70FFCFBF7A1
:1059B00065FCFBF7F1FDFBF745FFFBF781FFDFF827
:1059C0002C03B0F9000040F23C51884204DA40F266
:1059D0003C50DFF818130880DFF81003B0F900001E
:1059E00040F27D61884204DB40F27C60DFF8FC120B
:1059F0000880DFF8F802B0F900200021012000F053
:105A0000E9FADFF8EC02B0F90000002822D5DFF84F
:105A1000E002B0F9000010F5FA5F05DA4FF4FA5031
:105A2000DFF8F412088007E0DFF8C402B0F90000E4
:105A30004042DFF8E412088000220521002000F037
:105A4000C9FADFF8D402B0F900200621002000F0E6
:105A5000C1FA19E0DFF89802B0F9000040F2E9312C
:105A6000884204DB4FF47A70DFF884120880DFF894
:105A70008002B0F900200521002000F0ABFA0022DE
:105A80000621002000F0A6FADFF86802B0F9000055
:105A9000002822D5DFF85C02B0F9000010F5FA5FAB
:105AA00005DA4FF4FA50DFF87412088007E0DFF8E7
:105AB0004402B0F900004042DFF860120880002282
:105AC0000421002000F086FADFF85002B0F900202F
:105AD0000021002000F07EFA17E0DFF81802B0F98C
:105AE000000040F2E931884203DB4FF47A708149CB
:105AF00008808048B0F900200421002000F06AFAF4
:105B000000220021002000F065FA7B4890F9000097
:105B1000032805DA78480078401C7749087015E0BA
:105B20007648006876490968FBF734FF03D2744869
:105B30000068724908607348006873490968FBF798
:105B400029FF03D26F4800686F4908606F480088DA
:105B50000B280EDA6D4840880B280ADA6B488088DB
:105B60000B2806DA6948C0880B2802DA0120684948
:105B7000087067480078012813D100220421002012
:105B800000F028FA00220521002000F023FA00226C
:105B90000621002000F01EFA00220021002000F063
:105BA00019FA51480078C82804DA4F480078401C98
:105BB0004D4908704C480078642804D101205449AC
:105BC000087000F0FFFD01BD80B501212B2000F021
:105BD000BBFF5349488001212C2000F0B5FF5049FC
:105BE000C88401212E2000F0AFFF4D49A1F84A00E2
:105BF00001212F2000F0A8FF4949A1F86E000020E4
:105C00004849087047480078042821DA4449454843
:105C100002782420424301EB020040884249414A75
:105C2000127851F8221088420CD33D493D48027841
:105C30002420424301EB020040883B49394A127854
:105C400041F8220037480078401C36490870D9E7EF
:105C50003548026800210020FEF780FB3248426888
:105C600001210020FEF77AFB2F48826802210020E4
:105C7000FEF774FB2C48C26803210020FEF76EFB80
:105C800001BD80B5FF20FEF73DFF274802680021D7
:105C9000FF20FFF761FD3220FFF741F822484268FC
:105CA0000421FF20FFF758FD3220FFF738F81E4887
:105CB00082680821FF20FFF74FFD3220FFF72FF801
:105CC0001948C2680C21FF20FFF746FD3220FFF77C
:105CD00026F801BD0A14FF1FAE47E17A14AE034057
:105CE0000814FF1F1A14FF1F2514FF1FEC13FF1FBA
:105CF000FC13FF1FFE13FF1F2314FF1F8413FF1F3E
:105D0000FC12FF1F1813FF1F880FFF1FB812FF1F81
:105D10001414FF1F1C13FF1F0C14FF1F0E14FF1F72
:105D20002812FF1F2414FF1F8813FF1F38B504001B
:105D30000D0064B2002C03D0022C66D049D380E061
:105D4000DFF8D804006850F08070DFF8D0140860E5
:105D50006DB2002D0BD0022D15D00ED3042D1ED008
:105D600017D3062D27D020D3072D2AD02FE04FF4AC
:105D700080614120FEF764FE2AE04FF44071042068
:105D8000FEF75EFE24E04FF440710520FEF758FE5A
:105D90001EE04FF440710620FEF752FE18E04FF46B
:105DA00080616420FEF74CFE12E04FF480616520B4
:105DB000FEF746FE0CE04FF480616620FEF740FEE1
:105DC00006E04FF480616720FEF73AFE00E038E01D
:105DD00037E0DFF84804006850F00070DFF83C144A
:105DE00008606DB2002D02D0012D06D00BE04FF4FB
:105DF00040712020FEF724FE06E04FF440710D2094
:105E0000FEF71EFE00E01CE01BE0DFF81404006853
:105E100050F08070DFF8081408606DB2002D02D0D9
:105E2000012D06D00BE04FF440713220FEF708FE42
:105E300006E04FF440710B20FEF702FE00E000E0A8
:105E4000FFE731BD2DE9F84F04000D0016001F00DB
:105E500064B2002C0ED064B2012C02D064B2022CC9
:105E600002D16DB2022D05DB40F28511DFF8B403DB
:105E7000FEF759FE290049B2200040B2FFF756FF55
:105E8000DFF8A40301684FF47A7041438846404626
